:100000000C9434000C943E000C943E000C943E0082
:100010000C943E000C943E000C943E000C943E0068
:100020000C943E000C943E000C943E000C943E0058
:100030000C943E000C943E000C943E000C943E0048
:100040000C943E000C943E000C943E000C943E0038
:100050000C943E000C943E000C943E000C943E0028
:100060000C943E000C943E0011241FBECFEFD8E04C
:10007000DEBFCDBF0E9440000C9458000C940000DD
:10008000259A90E28FED95B92FEF39E648E121509E
:1000900030404040E1F700C0000085B92FEF39E65D
:1000A00048E1215030404040E1F700C00000EBCF74
:0400B000F894FFCFF2
:00000001FF
