:100000000C9434000C9446000C9446000C9446006A
:100010000C9446000C9446000C9446000C94460048
:100020000C9446000C9446000C94FB000C94460083
:100030000C9446000C94D1010C9446000C9446009C
:100040000C9446000C9446000C9446000C94460018
:100050000C9446000C9446000C9446000C94460008
:100060000C9446000C94460011241FBECFEFD8E03C
:10007000DEBFCDBF21E0A0E0B1E001C01D92A43001
:10008000B207E1F70E9418020C9444020C9400009D
:10009000E0ECF0E0908195FFFDCF8093C6000895DD
:1000A0009093C5008093C400E0ECF0E080818D7FE8
:1000B000808388E18093C10086E08093C200089528
:1000C000109201011092000110920301109202019E
:1000D0001092800081E280936F00789408958CEEF6
:1000E0009FEF909385008093840082E0809381004D
:1000F00084B985B90895109285001092840085E432
:10010000809381000895109285001092840085E00C
:10011000809381000895EF92FF920F931F93CF93E6
:10012000DF93CDB7DEB72C970FB6F894DEBF0FBEC6
:10013000CDBF9C878B87CE0101967C018E01055F28
:100140001F4FFC014B855C859A01ADECBCEC0E9415
:1001500035029695879596958795969587959C01F6
:10016000220F331F880F991F880F991F880F991F1F
:10017000820F931F481B590B419351932B853C854C
:100180000E943502969587959695879596958795C1
:100190009C878B87E017F107A9F602501109F80137
:1001A0008081805D0E9448000E151F05B1F78AE02E
:1001B0000E9448002C960FB6F894DEBF0FBECDBF4C
:1001C000DF91CF911F910F91FF90EF900895CF9302
:1001D000DF9300D0CDB7DEB79A8389831092810078
:1001E00010926F0089819A810E948B000F900F906E
:1001F000DF91CF9108951F920F920FB60F921124A5
:100200002F933F934F935F936F937F938F939F931E
:10021000AF93BF93EF93FF9380910301813031F44B
:100220000E94830082E080930301AAC080910301B1
:10023000823009F08AC08091860090918700909367
:1002400001018093000180910001909101018034AF
:10025000910588F48091000190910101982F990FE8
:10026000990F80E060EA73E00E942102709301011F
:10027000609300014EC080910001909101018115B1
:100280009440E8F48091000190910101929582954B
:100290008F7089279F708927382F330F330F20E005
:1002A000AFE9B6E40E943502929582958F70892756
:1002B0009F70892790930101809300012AC080914B
:1002C00000019091010180389E4098F42091000136
:1002D00030910101AFE9B6E40E943502880F991F01
:1002E000880F991F807C9F7090930101809300017B
:1002F00010C0809100019091010160EA73E00E94BA
:100300002102362F330F330F20E030930101209369
:100310000001809186009091870090930101809365
:10032000000180910001909101010E94E7008FEF90
:1003300099E628E1815090402040E1F700C000009C
:100340000E9460000E946F001BC083E40E9448006E
:1003500081E40E94480080E50E94480084E50E94F4
:1003600048008EE30E94480080910301805D0E9456
:1003700048008AE00E9448000E9460000E946F00CE
:10038000FF91EF91BF91AF919F918F917F916F916D
:100390005F914F913F912F910F900FBE0F901F9043
:1003A00018951F920F920FB60F9211242F933F931F
:1003B0004F935F936F937F938F939F93AF93BF936D
:1003C000CF93EF93FF9380910301811109C015B87A
:1003D000C1E0C09302010E947B00C093030116C0DC
:1003E0008FE40E94480086E50E94480086E40E944F
:1003F00048008EE30E94480088E50E9448008AE099
:100400000E9448000E9460000E946F00FF91EF91DF
:10041000CF91BF91AF919F918F917F916F915F919C
:100420004F913F912F910F900FBE0F901F901895F5
:100430000E94600087E690E00E9450000E946F00DA
:10044000FFCFAA1BBB1B51E107C0AA1FBB1FA617EA
:10045000B70710F0A61BB70B881F991F5A95A9F76D
:1004600080959095BC01CD010895A29FB001B39FE6
:10047000C001A39F700D811D1124911DB29F700DAD
:0C048000811D1124911D0895F894FFCFF8
:00000001FF
